{
  "_format": "hh-sol-artifact-1",
  "contractName": "Transactions",
  "sourceName": "contracts/Transactions.sol",
  "abi": [
    {
      "anonymous": false,
      "inputs": [
        {
          "indexed": false,
          "internalType": "address",
          "name": "from",
          "type": "address"
        },
        {
          "indexed": false,
          "internalType": "address",
          "name": "receiver",
          "type": "address"
        },
        {
          "indexed": false,
          "internalType": "uint256",
          "name": "amount",
          "type": "uint256"
        }
      ],
      "name": "Transfer",
      "type": "event"
    },
    {
      "anonymous": false,
      "inputs": [
        {
          "indexed": true,
          "internalType": "address",
          "name": "sender",
          "type": "address"
        },
        {
          "indexed": true,
          "internalType": "address",
          "name": "receiver",
          "type": "address"
        },
        {
          "indexed": false,
          "internalType": "uint256",
          "name": "amount",
          "type": "uint256"
        }
      ],
      "name": "TransferEvent",
      "type": "event"
    },
    {
      "inputs": [
        {
          "internalType": "address payable",
          "name": "receiver",
          "type": "address"
        },
        {
          "internalType": "uint256",
          "name": "amount",
          "type": "uint256"
        }
      ],
      "name": "addToBlockChain",
      "outputs": [
        {
          "internalType": "bytes32",
          "name": "",
          "type": "bytes32"
        }
      ],
      "stateMutability": "nonpayable",
      "type": "function"
    },
    {
      "inputs": [
        {
          "internalType": "address",
          "name": "receiver",
          "type": "address"
        },
        {
          "internalType": "uint256",
          "name": "amount",
          "type": "uint256"
        }
      ],
      "name": "createAndEmitTransfer",
      "outputs": [],
      "stateMutability": "nonpayable",
      "type": "function"
    }
  ],
  "bytecode": "0x608060405234801561001057600080fd5b5061063b806100206000396000f3fe608060405234801561001057600080fd5b50600436106100365760003560e01c80634434bd111461003b57806385aefdba1461006b575b600080fd5b61005560048036038101906100509190610364565b610087565b60405161006291906103bd565b60405180910390f35b61008560048036038101906100809190610416565b61020a565b005b600080338484426040516020016100a194939291906104e8565b604051602081830303815290604052805190602001209050600060405180606001604052803373ffffffffffffffffffffffffffffffffffffffff1681526020018673ffffffffffffffffffffffffffffffffffffffff16815260200185815250908060018154018082558091505060019003906000526020600020906003020160009091909190915060008201518160000160006101000a81548173ffffffffffffffffffffffffffffffffffffffff021916908373ffffffffffffffffffffffffffffffffffffffff16021790555060208201518160010160006101000a81548173ffffffffffffffffffffffffffffffffffffffff021916908373ffffffffffffffffffffffffffffffffffffffff1602179055506040820151816002015550507fddf252ad1be2c89b69c2b068fc378daa952ba7f163c4a11628f55a4df523b3ef3385856040516101f8939291906105b3565b60405180910390a18091505092915050565b600060405180606001604052803373ffffffffffffffffffffffffffffffffffffffff1681526020018473ffffffffffffffffffffffffffffffffffffffff168152602001838152509050806020015173ffffffffffffffffffffffffffffffffffffffff16816000015173ffffffffffffffffffffffffffffffffffffffff167feaf1c4b3ce0f4f62a2bae7eb3e68225c75f7e6ff4422073b7437b9a78d25f17083604001516040516102be91906105ea565b60405180910390a3505050565b600080fd5b600073ffffffffffffffffffffffffffffffffffffffff82169050919050565b60006102fb826102d0565b9050919050565b61030b816102f0565b811461031657600080fd5b50565b60008135905061032881610302565b92915050565b6000819050919050565b6103418161032e565b811461034c57600080fd5b50565b60008135905061035e81610338565b92915050565b6000806040838503121561037b5761037a6102cb565b5b600061038985828601610319565b925050602061039a8582860161034f565b9150509250929050565b6000819050919050565b6103b7816103a4565b82525050565b60006020820190506103d260008301846103ae565b92915050565b60006103e3826102d0565b9050919050565b6103f3816103d8565b81146103fe57600080fd5b50565b600081359050610410816103ea565b92915050565b6000806040838503121561042d5761042c6102cb565b5b600061043b85828601610401565b925050602061044c8582860161034f565b9150509250929050565b60008160601b9050919050565b600061046e82610456565b9050919050565b600061048082610463565b9050919050565b610498610493826103d8565b610475565b82525050565b60006104a982610463565b9050919050565b6104c16104bc826102f0565b61049e565b82525050565b6000819050919050565b6104e26104dd8261032e565b6104c7565b82525050565b60006104f48287610487565b60148201915061050482866104b0565b60148201915061051482856104d1565b60208201915061052482846104d1565b60208201915081905095945050505050565b61053f816103d8565b82525050565b6000819050919050565b600061056a610565610560846102d0565b610545565b6102d0565b9050919050565b600061057c8261054f565b9050919050565b600061058e82610571565b9050919050565b61059e81610583565b82525050565b6105ad8161032e565b82525050565b60006060820190506105c86000830186610536565b6105d56020830185610595565b6105e260408301846105a4565b949350505050565b60006020820190506105ff60008301846105a4565b9291505056fea2646970667358221220f92f0b26859677e8773befcc8cbabdad22699f4b0028ed70950ce700ce61cb0264736f6c63430008130033",
  "linkReferences": {},
  "deployedLinkReferences": {}
}